{
  "_format": "hh-sol-artifact-1",
  "contractName": "DAO",
  "sourceName": "contracts/DAO.sol",
  "abi": [
    {
      "inputs": [
        {
          "internalType": "address",
          "name": "_governanceToken",
          "type": "address"
        }
      ],
      "stateMutability": "nonpayable",
      "type": "constructor"
    },
    {
      "inputs": [
        {
          "internalType": "address",
          "name": "owner",
          "type": "address"
        }
      ],
      "name": "OwnableInvalidOwner",
      "type": "error"
    },
    {
      "inputs": [
        {
          "internalType": "address",
          "name": "account",
          "type": "address"
        }
      ],
      "name": "OwnableUnauthorizedAccount",
      "type": "error"
    },
    {
      "anonymous": false,
      "inputs": [
        {
          "indexed": true,
          "internalType": "uint256",
          "name": "campaignId",
          "type": "uint256"
        },
        {
          "indexed": false,
          "internalType": "address",
          "name": "creator",
          "type": "address"
        },
        {
          "indexed": false,
          "internalType": "string",
          "name": "description",
          "type": "string"
        },
        {
          "indexed": false,
          "internalType": "uint256",
          "name": "fundingGoal",
          "type": "uint256"
        },
        {
          "indexed": false,
          "internalType": "uint256",
          "name": "deadline",
          "type": "uint256"
        },
        {
          "indexed": false,
          "internalType": "address",
          "name": "beneficiary",
          "type": "address"
        }
      ],
      "name": "CampaignCreated",
      "type": "event"
    },
    {
      "anonymous": false,
      "inputs": [
        {
          "indexed": true,
          "internalType": "uint256",
          "name": "campaignId",
          "type": "uint256"
        },
        {
          "indexed": false,
          "internalType": "bool",
          "name": "success",
          "type": "bool"
        }
      ],
      "name": "CampaignFinalized",
      "type": "event"
    },
    {
      "anonymous": false,
      "inputs": [
        {
          "indexed": true,
          "internalType": "uint256",
          "name": "campaignId",
          "type": "uint256"
        },
        {
          "indexed": false,
          "internalType": "address",
          "name": "contributor",
          "type": "address"
        },
        {
          "indexed": false,
          "internalType": "uint256",
          "name": "amount",
          "type": "uint256"
        }
      ],
      "name": "Contributed",
      "type": "event"
    },
    {
      "anonymous": false,
      "inputs": [
        {
          "indexed": true,
          "internalType": "address",
          "name": "previousOwner",
          "type": "address"
        },
        {
          "indexed": true,
          "internalType": "address",
          "name": "newOwner",
          "type": "address"
        }
      ],
      "name": "OwnershipTransferred",
      "type": "event"
    },
    {
      "anonymous": false,
      "inputs": [
        {
          "indexed": true,
          "internalType": "uint256",
          "name": "campaignId",
          "type": "uint256"
        },
        {
          "indexed": false,
          "internalType": "address",
          "name": "voter",
          "type": "address"
        },
        {
          "indexed": false,
          "internalType": "bool",
          "name": "support",
          "type": "bool"
        }
      ],
      "name": "Voted",
      "type": "event"
    },
    {
      "anonymous": false,
      "inputs": [
        {
          "indexed": true,
          "internalType": "uint256",
          "name": "campaignId",
          "type": "uint256"
        },
        {
          "indexed": false,
          "internalType": "address",
          "name": "beneficiary",
          "type": "address"
        },
        {
          "indexed": false,
          "internalType": "uint256",
          "name": "amount",
          "type": "uint256"
        }
      ],
      "name": "Withdrawn",
      "type": "event"
    },
    {
      "inputs": [
        {
          "internalType": "uint256",
          "name": "",
          "type": "uint256"
        }
      ],
      "name": "campaigns",
      "outputs": [
        {
          "internalType": "address",
          "name": "creator",
          "type": "address"
        },
        {
          "internalType": "string",
          "name": "description",
          "type": "string"
        },
        {
          "internalType": "uint256",
          "name": "fundingGoal",
          "type": "uint256"
        },
        {
          "internalType": "uint256",
          "name": "deadline",
          "type": "uint256"
        },
        {
          "internalType": "uint256",
          "name": "totalContributions",
          "type": "uint256"
        },
        {
          "internalType": "address",
          "name": "beneficiary",
          "type": "address"
        },
        {
          "internalType": "uint256",
          "name": "isWithdrawn",
          "type": "uint256"
        },
        {
          "internalType": "uint256",
          "name": "votesFor",
          "type": "uint256"
        },
        {
          "internalType": "uint256",
          "name": "votesAgainst",
          "type": "uint256"
        }
      ],
      "stateMutability": "view",
      "type": "function"
    },
    {
      "inputs": [
        {
          "internalType": "uint256",
          "name": "_campaignId",
          "type": "uint256"
        }
      ],
      "name": "contribute",
      "outputs": [],
      "stateMutability": "payable",
      "type": "function"
    },
    {
      "inputs": [
        {
          "internalType": "string",
          "name": "_description",
          "type": "string"
        },
        {
          "internalType": "uint256",
          "name": "_fundingGoal",
          "type": "uint256"
        },
        {
          "internalType": "uint256",
          "name": "_deadline",
          "type": "uint256"
        },
        {
          "internalType": "address",
          "name": "_beneficiary",
          "type": "address"
        }
      ],
      "name": "createCampaign",
      "outputs": [],
      "stateMutability": "nonpayable",
      "type": "function"
    },
    {
      "inputs": [
        {
          "internalType": "uint256",
          "name": "_campaignId",
          "type": "uint256"
        }
      ],
      "name": "finalizeCampaign",
      "outputs": [],
      "stateMutability": "nonpayable",
      "type": "function"
    },
    {
      "inputs": [],
      "name": "governanceToken",
      "outputs": [
        {
          "internalType": "contract GovernanceToken",
          "name": "",
          "type": "address"
        }
      ],
      "stateMutability": "view",
      "type": "function"
    },
    {
      "inputs": [],
      "name": "owner",
      "outputs": [
        {
          "internalType": "address",
          "name": "",
          "type": "address"
        }
      ],
      "stateMutability": "view",
      "type": "function"
    },
    {
      "inputs": [],
      "name": "renounceOwnership",
      "outputs": [],
      "stateMutability": "nonpayable",
      "type": "function"
    },
    {
      "inputs": [
        {
          "internalType": "address",
          "name": "newOwner",
          "type": "address"
        }
      ],
      "name": "transferOwnership",
      "outputs": [],
      "stateMutability": "nonpayable",
      "type": "function"
    },
    {
      "inputs": [
        {
          "internalType": "uint256",
          "name": "_campaignId",
          "type": "uint256"
        },
        {
          "internalType": "bool",
          "name": "_support",
          "type": "bool"
        }
      ],
      "name": "vote",
      "outputs": [],
      "stateMutability": "nonpayable",
      "type": "function"
    },
    {
      "inputs": [
        {
          "internalType": "uint256",
          "name": "_campaignId",
          "type": "uint256"
        }
      ],
      "name": "withdrawContribution",
      "outputs": [],
      "stateMutability": "nonpayable",
      "type": "function"
    },
    {
      "stateMutability": "payable",
      "type": "receive"
    }
  ],
  "bytecode": "0x60806040523480156200001157600080fd5b506040516200282638038062002826833981810160405281019062000037919062000235565b33600073ffffffffffffffffffffffffffffffffffffffff168173ffffffffffffffffffffffffffffffffffffffff1603620000ad5760006040517f1e4fbdf7000000000000000000000000000000000000000000000000000000008152600401620000a4919062000278565b60405180910390fd5b620000be816200010760201b60201c565b5080600160006101000a81548173ffffffffffffffffffffffffffffffffffffffff021916908373ffffffffffffffffffffffffffffffffffffffff1602179055505062000295565b60008060009054906101000a900473ffffffffffffffffffffffffffffffffffffffff169050816000806101000a81548173ffffffffffffffffffffffffffffffffffffffff021916908373ffffffffffffffffffffffffffffffffffffffff1602179055508173ffffffffffffffffffffffffffffffffffffffff168173ffffffffffffffffffffffffffffffffffffffff167f8be0079c531659141344cd1fd0a4f28419497f9722a3daafe3b4186f6b6457e060405160405180910390a35050565b600080fd5b600073ffffffffffffffffffffffffffffffffffffffff82169050919050565b6000620001fd82620001d0565b9050919050565b6200020f81620001f0565b81146200021b57600080fd5b50565b6000815190506200022f8162000204565b92915050565b6000602082840312156200024e576200024d620001cb565b5b60006200025e848285016200021e565b91505092915050565b6200027281620001f0565b82525050565b60006020820190506200028f600083018462000267565b92915050565b61258180620002a56000396000f3fe6080604052600436106100955760003560e01c8063c1cbbca711610059578063c1cbbca71461017a578063c9d27afe14610196578063d25090ff146101bf578063f2fde38b146101e8578063f96dae0a146102115761009c565b8063141961bc146100a15780635d280840146100e65780636b5ca27d1461010f578063715018a6146101385780638da5cb5b1461014f5761009c565b3661009c57005b600080fd5b3480156100ad57600080fd5b506100c860048036038101906100c391906114ac565b61023c565b6040516100dd999897969594939291906115b9565b60405180910390f35b3480156100f257600080fd5b5061010d600480360381019061010891906117ae565b610362565b005b34801561011b57600080fd5b50610136600480360381019061013191906114ac565b610596565b005b34801561014457600080fd5b5061014d61099f565b005b34801561015b57600080fd5b506101646109b3565b6040516101719190611831565b60405180910390f35b610194600480360381019061018f91906114ac565b6109dc565b005b3480156101a257600080fd5b506101bd60048036038101906101b89190611884565b610ba8565b005b3480156101cb57600080fd5b506101e660048036038101906101e191906114ac565b610f0d565b005b3480156101f457600080fd5b5061020f600480360381019061020a91906118c4565b611263565b005b34801561021d57600080fd5b506102266112e9565b6040516102339190611950565b60405180910390f35b6002818154811061024c57600080fd5b90600052602060002090600b02016000915090508060000160009054906101000a900473ffffffffffffffffffffffffffffffffffffffff16908060010180546102959061199a565b80601f01602080910402602001604051908101604052809291908181526020018280546102c19061199a565b801561030e5780601f106102e35761010080835404028352916020019161030e565b820191906000526020600020905b8154815290600101906020018083116102f157829003601f168201915b5050505050908060020154908060030154908060040154908060050160009054906101000a900473ffffffffffffffffffffffffffffffffffffffff169080600601549080600901549080600a0154905089565b4282116103a4576040517f08c379a000000000000000000000000000000000000000000000000000000000815260040161039b90611a3d565b60405180910390fd5b600083116103e7576040517f08c379a00000000000000000000000000000000000000000000000000000000081526004016103de90611acf565b60405180910390fd5b600073ffffffffffffffffffffffffffffffffffffffff168173ffffffffffffffffffffffffffffffffffffffff1603610456576040517f08c379a000000000000000000000000000000000000000000000000000000000815260040161044d90611b61565b60405180910390fd5b6000600280549050905060026001816001815401808255809150500390600052602060002090505060006002828154811061049457610493611b81565b5b90600052602060002090600b02019050338160000160006101000a81548173ffffffffffffffffffffffffffffffffffffffff021916908373ffffffffffffffffffffffffffffffffffffffff160217905550858160010190816104f89190611d52565b50848160020181905550838160030181905550828160050160006101000a81548173ffffffffffffffffffffffffffffffffffffffff021916908373ffffffffffffffffffffffffffffffffffffffff160217905550817f70b65d516d7fc01166e2a588b8039b75c6f099c441fda66abf3526973888cf103388888888604051610586959493929190611e24565b60405180910390a2505050505050565b8060028054905081106105de576040517f08c379a00000000000000000000000000000000000000000000000000000000081526004016105d590611eca565b60405180910390fd5b81600281815481106105f3576105f2611b81565b5b90600052602060002090600b020160030154421015610647576040517f08c379a000000000000000000000000000000000000000000000000000000000815260040161063e90611f36565b60405180910390fd5b60006002848154811061065d5761065c611b81565b5b90600052602060002090600b0201905060008160060154146106b4576040517f08c379a00000000000000000000000000000000000000000000000000000000081526004016106ab90611fa2565b60405180910390fd5b600073ffffffffffffffffffffffffffffffffffffffff168160050160009054906101000a900473ffffffffffffffffffffffffffffffffffffffff1673ffffffffffffffffffffffffffffffffffffffff1603610747576040517f08c379a000000000000000000000000000000000000000000000000000000000815260040161073e9061200e565b60405180910390fd5b6000600160009054906101000a900473ffffffffffffffffffffffffffffffffffffffff1673ffffffffffffffffffffffffffffffffffffffff166318160ddd6040518163ffffffff1660e01b8152600401602060405180830381865afa1580156107b6573d6000803e3d6000fd5b505050506040513d601f19601f820116820180604052508101906107da9190612043565b600283600901546107eb919061209f565b10158015610801575081600a0154826009015410155b8061081457508160020154826004015410155b905080156109565760008260040154905060008360050160009054906101000a900473ffffffffffffffffffffffffffffffffffffffff1673ffffffffffffffffffffffffffffffffffffffff168260405161086f90612112565b60006040518083038185875af1925050503d80600081146108ac576040519150601f19603f3d011682016040523d82523d6000602084013e6108b1565b606091505b50509050806108f5576040517f08c379a00000000000000000000000000000000000000000000000000000000081526004016108ec90612173565b60405180910390fd5b867fcf7d23a3cbe4e8b36ff82fd1b05b1b17373dc7804b4ebbd6e2356716ef2023728560050160009054906101000a900473ffffffffffffffffffffffffffffffffffffffff168460405161094b929190612193565b60405180910390a250505b60018260060181905550847f153ed4c9c4475018e4899faf78c3171cc7869a9c53a2d247de2ff74377eba7888260405161099091906121cb565b60405180910390a25050505050565b6109a761130f565b6109b16000611396565b565b60008060009054906101000a900473ffffffffffffffffffffffffffffffffffffffff16905090565b806002805490508110610a24576040517f08c379a0000000000000000000000000000000000000000000000000000000008152600401610a1b90611eca565b60405180910390fd5b8160028181548110610a3957610a38611b81565b5b90600052602060002090600b0201600301544210610a8c576040517f08c379a0000000000000000000000000000000000000000000000000000000008152600401610a8390612232565b60405180910390fd5b60003411610acf576040517f08c379a0000000000000000000000000000000000000000000000000000000008152600401610ac6906122c4565b60405180910390fd5b600060028481548110610ae557610ae4611b81565b5b90600052602060002090600b02019050348160070160003373ffffffffffffffffffffffffffffffffffffffff1673ffffffffffffffffffffffffffffffffffffffff1681526020019081526020016000206000828254610b4691906122e4565b9250508190555034816004016000828254610b6191906122e4565b92505081905550837fb2ed2e021651f85a4754a44651fc09ac5141bc0329ce4dfe8dd712a5d04a8b393334604051610b9a929190612193565b60405180910390a250505050565b81600060028281548110610bbf57610bbe611b81565b5b90600052602060002090600b020160070160003373ffffffffffffffffffffffffffffffffffffffff1673ffffffffffffffffffffffffffffffffffffffff1681526020019081526020016000205411610c4e576040517f08c379a0000000000000000000000000000000000000000000000000000000008152600401610c4590612364565b60405180910390fd5b8260028181548110610c6357610c62611b81565b5b90600052602060002090600b020160080160003373ffffffffffffffffffffffffffffffffffffffff1673ffffffffffffffffffffffffffffffffffffffff16815260200190815260200160002060009054906101000a900460ff1615610cff576040517f08c379a0000000000000000000000000000000000000000000000000000000008152600401610cf6906123d0565b60405180910390fd5b8360028181548110610d1457610d13611b81565b5b90600052602060002090600b020160030154421015610d68576040517f08c379a0000000000000000000000000000000000000000000000000000000008152600401610d5f90611f36565b60405180910390fd5b600060028681548110610d7e57610d7d611b81565b5b90600052602060002090600b020190506000600160009054906101000a900473ffffffffffffffffffffffffffffffffffffffff1673ffffffffffffffffffffffffffffffffffffffff16639ab24eb0336040518263ffffffff1660e01b8152600401610deb9190611831565b602060405180830381865afa158015610e08573d6000803e3d6000fd5b505050506040513d601f19601f82011682018060405250810190610e2c9190612043565b90508515610e545780826009016000828254610e4891906122e4565b92505081905550610e70565b8082600a016000828254610e6891906122e4565b925050819055505b60018260080160003373ffffffffffffffffffffffffffffffffffffffff1673ffffffffffffffffffffffffffffffffffffffff16815260200190815260200160002060006101000a81548160ff021916908315150217905550867ff2913dbe661ee2acc4a046d8fbcdc792373bda34c41c6086484b5345e5785e5f3388604051610efc9291906123f0565b60405180910390a250505050505050565b806002805490508110610f55576040517f08c379a0000000000000000000000000000000000000000000000000000000008152600401610f4c90611eca565b60405180910390fd5b8160028181548110610f6a57610f69611b81565b5b90600052602060002090600b0201600301544210610fbd576040517f08c379a0000000000000000000000000000000000000000000000000000000008152600401610fb490612232565b60405180910390fd5b82600060028281548110610fd457610fd3611b81565b5b90600052602060002090600b020160070160003373ffffffffffffffffffffffffffffffffffffffff1673ffffffffffffffffffffffffffffffffffffffff1681526020019081526020016000205411611063576040517f08c379a000000000000000000000000000000000000000000000000000000000815260040161105a90612364565b60405180910390fd5b60006002858154811061107957611078611b81565b5b90600052602060002090600b0201905060008160070160003373ffffffffffffffffffffffffffffffffffffffff1673ffffffffffffffffffffffffffffffffffffffff16815260200190815260200160002054905060008111611112576040517f08c379a000000000000000000000000000000000000000000000000000000000815260040161110990612465565b60405180910390fd5b60008260070160003373ffffffffffffffffffffffffffffffffffffffff1673ffffffffffffffffffffffffffffffffffffffff168152602001908152602001600020819055508082600401600082825461116d9190612485565b9250508190555060003373ffffffffffffffffffffffffffffffffffffffff168260405161119a90612112565b60006040518083038185875af1925050503d80600081146111d7576040519150601f19603f3d011682016040523d82523d6000602084013e6111dc565b606091505b5050905080611220576040517f08c379a00000000000000000000000000000000000000000000000000000000081526004016112179061252b565b60405180910390fd5b867fb2ed2e021651f85a4754a44651fc09ac5141bc0329ce4dfe8dd712a5d04a8b393384604051611252929190612193565b60405180910390a250505050505050565b61126b61130f565b600073ffffffffffffffffffffffffffffffffffffffff168173ffffffffffffffffffffffffffffffffffffffff16036112dd5760006040517f1e4fbdf70000000000000000000000000000000000000000000000000000000081526004016112d49190611831565b60405180910390fd5b6112e681611396565b50565b600160009054906101000a900473ffffffffffffffffffffffffffffffffffffffff1681565b61131761145a565b73ffffffffffffffffffffffffffffffffffffffff166113356109b3565b73ffffffffffffffffffffffffffffffffffffffff16146113945761135861145a565b6040517f118cdaa700000000000000000000000000000000000000000000000000000000815260040161138b9190611831565b60405180910390fd5b565b60008060009054906101000a900473ffffffffffffffffffffffffffffffffffffffff169050816000806101000a81548173ffffffffffffffffffffffffffffffffffffffff021916908373ffffffffffffffffffffffffffffffffffffffff1602179055508173ffffffffffffffffffffffffffffffffffffffff168173ffffffffffffffffffffffffffffffffffffffff167f8be0079c531659141344cd1fd0a4f28419497f9722a3daafe3b4186f6b6457e060405160405180910390a35050565b600033905090565b6000604051905090565b600080fd5b600080fd5b6000819050919050565b61148981611476565b811461149457600080fd5b50565b6000813590506114a681611480565b92915050565b6000602082840312156114c2576114c161146c565b5b60006114d084828501611497565b91505092915050565b600073ffffffffffffffffffffffffffffffffffffffff82169050919050565b6000611504826114d9565b9050919050565b611514816114f9565b82525050565b600081519050919050565b600082825260208201905092915050565b60005b83811015611554578082015181840152602081019050611539565b60008484015250505050565b6000601f19601f8301169050919050565b600061157c8261151a565b6115868185611525565b9350611596818560208601611536565b61159f81611560565b840191505092915050565b6115b381611476565b82525050565b6000610120820190506115cf600083018c61150b565b81810360208301526115e1818b611571565b90506115f0604083018a6115aa565b6115fd60608301896115aa565b61160a60808301886115aa565b61161760a083018761150b565b61162460c08301866115aa565b61163160e08301856115aa565b61163f6101008301846115aa565b9a9950505050505050505050565b600080fd5b600080fd5b7f4e487b7100000000000000000000000000000000000000000000000000000000600052604160045260246000fd5b61168f82611560565b810181811067ffffffffffffffff821117156116ae576116ad611657565b5b80604052505050565b60006116c1611462565b90506116cd8282611686565b919050565b600067ffffffffffffffff8211156116ed576116ec611657565b5b6116f682611560565b9050602081019050919050565b82818337600083830152505050565b6000611725611720846116d2565b6116b7565b90508281526020810184848401111561174157611740611652565b5b61174c848285611703565b509392505050565b600082601f8301126117695761176861164d565b5b8135611779848260208601611712565b91505092915050565b61178b816114f9565b811461179657600080fd5b50565b6000813590506117a881611782565b92915050565b600080600080608085870312156117c8576117c761146c565b5b600085013567ffffffffffffffff8111156117e6576117e5611471565b5b6117f287828801611754565b945050602061180387828801611497565b935050604061181487828801611497565b925050606061182587828801611799565b91505092959194509250565b6000602082019050611846600083018461150b565b92915050565b60008115159050919050565b6118618161184c565b811461186c57600080fd5b50565b60008135905061187e81611858565b92915050565b6000806040838503121561189b5761189a61146c565b5b60006118a985828601611497565b92505060206118ba8582860161186f565b9150509250929050565b6000602082840312156118da576118d961146c565b5b60006118e884828501611799565b91505092915050565b6000819050919050565b600061191661191161190c846114d9565b6118f1565b6114d9565b9050919050565b6000611928826118fb565b9050919050565b600061193a8261191d565b9050919050565b61194a8161192f565b82525050565b60006020820190506119656000830184611941565b92915050565b7f4e487b7100000000000000000000000000000000000000000000000000000000600052602260045260246000fd5b600060028204905060018216806119b257607f821691505b6020821081036119c5576119c461196b565b5b50919050565b7f44414f3a20446561646c696e65206d75737420626520696e207468652066757460008201527f7572650000000000000000000000000000000000000000000000000000000000602082015250565b6000611a27602383611525565b9150611a32826119cb565b604082019050919050565b60006020820190508181036000830152611a5681611a1a565b9050919050565b7f44414f3a2046756e64696e6720676f616c206d7573742062652067726561746560008201527f72207468616e207a65726f000000000000000000000000000000000000000000602082015250565b6000611ab9602b83611525565b9150611ac482611a5d565b604082019050919050565b60006020820190508181036000830152611ae881611aac565b9050919050565b7f44414f3a2042656e656669636961727920616464726573732063616e6e6f742060008201527f6265207a65726f00000000000000000000000000000000000000000000000000602082015250565b6000611b4b602783611525565b9150611b5682611aef565b604082019050919050565b60006020820190508181036000830152611b7a81611b3e565b9050919050565b7f4e487b7100000000000000000000000000000000000000000000000000000000600052603260045260246000fd5b60008190508160005260206000209050919050565b60006020601f8301049050919050565b600082821b905092915050565b600060088302611c127fffffffffffffffffffffffffffffffffffffffffffffffffffffffffffffffff82611bd5565b611c1c8683611bd5565b95508019841693508086168417925050509392505050565b6000611c4f611c4a611c4584611476565b6118f1565b611476565b9050919050565b6000819050919050565b611c6983611c34565b611c7d611c7582611c56565b848454611be2565b825550505050565b600090565b611c92611c85565b611c9d818484611c60565b505050565b5b81811015611cc157611cb6600082611c8a565b600181019050611ca3565b5050565b601f821115611d0657611cd781611bb0565b611ce084611bc5565b81016020851015611cef578190505b611d03611cfb85611bc5565b830182611ca2565b50505b505050565b600082821c905092915050565b6000611d2960001984600802611d0b565b1980831691505092915050565b6000611d428383611d18565b9150826002028217905092915050565b611d5b8261151a565b67ffffffffffffffff811115611d7457611d73611657565b5b611d7e825461199a565b611d89828285611cc5565b600060209050601f831160018114611dbc5760008415611daa578287015190505b611db48582611d36565b865550611e1c565b601f198416611dca86611bb0565b60005b82811015611df257848901518255600182019150602085019450602081019050611dcd565b86831015611e0f5784890151611e0b601f891682611d18565b8355505b6001600288020188555050505b505050505050565b600060a082019050611e39600083018861150b565b8181036020830152611e4b8187611571565b9050611e5a60408301866115aa565b611e6760608301856115aa565b611e74608083018461150b565b9695505050505050565b7f44414f3a2043616d706169676e20646f6573206e6f7420657869737400000000600082015250565b6000611eb4601c83611525565b9150611ebf82611e7e565b602082019050919050565b60006020820190508181036000830152611ee381611ea7565b9050919050565b7f44414f3a2043616d706169676e206973207374696c6c206f70656e0000000000600082015250565b6000611f20601b83611525565b9150611f2b82611eea565b602082019050919050565b60006020820190508181036000830152611f4f81611f13565b9050919050565b7f44414f3a2043616d706169676e20616c72656164792066696e616c697a656400600082015250565b6000611f8c601f83611525565b9150611f9782611f56565b602082019050919050565b60006020820190508181036000830152611fbb81611f7f565b9050919050565b7f44414f3a2042656e6566696369617279206e6f74207365740000000000000000600082015250565b6000611ff8601883611525565b915061200382611fc2565b602082019050919050565b6000602082019050818103600083015261202781611feb565b9050919050565b60008151905061203d81611480565b92915050565b6000602082840312156120595761205861146c565b5b60006120678482850161202e565b91505092915050565b7f4e487b7100000000000000000000000000000000000000000000000000000000600052601160045260246000fd5b60006120aa82611476565b91506120b583611476565b92508282026120c381611476565b915082820484148315176120da576120d9612070565b5b5092915050565b600081905092915050565b50565b60006120fc6000836120e1565b9150612107826120ec565b600082019050919050565b600061211d826120ef565b9150819050919050565b7f44414f3a204661696c656420746f2073656e642066756e647300000000000000600082015250565b600061215d601983611525565b915061216882612127565b602082019050919050565b6000602082019050818103600083015261218c81612150565b9050919050565b60006040820190506121a8600083018561150b565b6121b560208301846115aa565b9392505050565b6121c58161184c565b82525050565b60006020820190506121e060008301846121bc565b92915050565b7f44414f3a2043616d706169676e2068617320656e646564000000000000000000600082015250565b600061221c601783611525565b9150612227826121e6565b602082019050919050565b6000602082019050818103600083015261224b8161220f565b9050919050565b7f44414f3a20436f6e747269627574696f6e206d7573742062652067726561746560008201527f72207468616e207a65726f000000000000000000000000000000000000000000602082015250565b60006122ae602b83611525565b91506122b982612252565b604082019050919050565b600060208201905081810360008301526122dd816122a1565b9050919050565b60006122ef82611476565b91506122fa83611476565b925082820190508082111561231257612311612070565b5b92915050565b7f44414f3a204e6f20636f6e747269627574696f6e206d61646500000000000000600082015250565b600061234e601983611525565b915061235982612318565b602082019050919050565b6000602082019050818103600083015261237d81612341565b9050919050565b7f44414f3a20566f7465722068617320616c726561647920766f74656400000000600082015250565b60006123ba601c83611525565b91506123c582612384565b602082019050919050565b600060208201905081810360008301526123e9816123ad565b9050919050565b6000604082019050612405600083018561150b565b61241260208301846121bc565b9392505050565b7f44414f3a204e6f20636f6e747269627574696f6e20746f207769746864726177600082015250565b600061244f602083611525565b915061245a82612419565b602082019050919050565b6000602082019050818103600083015261247e81612442565b9050919050565b600061249082611476565b915061249b83611476565b92508282039050818111156124b3576124b2612070565b5b92915050565b7f44414f3a204661696c656420746f20776974686472617720636f6e747269627560008201527f74696f6e00000000000000000000000000000000000000000000000000000000602082015250565b6000612515602483611525565b9150612520826124b9565b604082019050919050565b6000602082019050818103600083015261254481612508565b905091905056fea264697066735822122042ca4175b992f3fc1607c74c8c6e285adf5634bc92362280ad4fe7a713196dd664736f6c63430008140033",
  "linkReferences": {},
  "deployedLinkReferences": {}
}